{
  "contractName": "TheButton",
  "abi": [
    {
      "inputs": [
        {
          "internalType": "uint256",
          "name": "_press_fee",
          "type": "uint256"
        }
      ],
      "stateMutability": "nonpayable",
      "type": "constructor"
    },
    {
      "anonymous": false,
      "inputs": [
        {
          "indexed": false,
          "internalType": "address",
          "name": "",
          "type": "address"
        },
        {
          "indexed": false,
          "internalType": "uint256",
          "name": "",
          "type": "uint256"
        }
      ],
      "name": "ButtonPressed",
      "type": "event"
    },
    {
      "anonymous": false,
      "inputs": [
        {
          "indexed": false,
          "internalType": "address",
          "name": "",
          "type": "address"
        },
        {
          "indexed": false,
          "internalType": "uint256",
          "name": "",
          "type": "uint256"
        }
      ],
      "name": "Fallback",
      "type": "event"
    },
    {
      "anonymous": false,
      "inputs": [
        {
          "indexed": false,
          "internalType": "address",
          "name": "",
          "type": "address"
        },
        {
          "indexed": false,
          "internalType": "uint256",
          "name": "",
          "type": "uint256"
        }
      ],
      "name": "Receive",
      "type": "event"
    },
    {
      "anonymous": false,
      "inputs": [
        {
          "indexed": false,
          "internalType": "address",
          "name": "",
          "type": "address"
        },
        {
          "indexed": false,
          "internalType": "uint256",
          "name": "",
          "type": "uint256"
        }
      ],
      "name": "TreasureClaimed",
      "type": "event"
    },
    {
      "stateMutability": "payable",
      "type": "fallback"
    },
    {
      "inputs": [],
      "name": "last_press_block",
      "outputs": [
        {
          "internalType": "uint256",
          "name": "",
          "type": "uint256"
        }
      ],
      "stateMutability": "view",
      "type": "function"
    },
    {
      "inputs": [],
      "name": "last_presser",
      "outputs": [
        {
          "internalType": "address",
          "name": "",
          "type": "address"
        }
      ],
      "stateMutability": "view",
      "type": "function"
    },
    {
      "inputs": [],
      "name": "press_fee",
      "outputs": [
        {
          "internalType": "uint256",
          "name": "",
          "type": "uint256"
        }
      ],
      "stateMutability": "view",
      "type": "function"
    },
    {
      "stateMutability": "payable",
      "type": "receive"
    },
    {
      "inputs": [],
      "name": "press_button",
      "outputs": [],
      "stateMutability": "payable",
      "type": "function"
    },
    {
      "inputs": [],
      "name": "claim_treasure",
      "outputs": [],
      "stateMutability": "nonpayable",
      "type": "function"
    }
  ],
  "bytecode": "0x60a060405234801561001057600080fd5b506040516107db3803806107db83398181016040528101906100329190610055565b80608081815250505061009f565b60008151905061004f81610088565b92915050565b60006020828403121561006757600080fd5b600061007584828501610040565b91505092915050565b6000819050919050565b6100918161007e565b811461009c57600080fd5b50565b6080516107216100ba60003960006101af01526107216000f3fe60806040526004361061004e5760003560e01c80630736783d146100c957806392999708146100d3578063aef4da6b146100fe578063c849b37514610115578063d74031b7146101405761008e565b3661008e577fd6717f327e0cb88b4a97a7f67a453e9258252c34937ccbdd86de7cb840e7def333346040516100849291906104c6565b60405180910390a1005b7ffbf15a1bae5e021d024841007b692b167afd2a281a4ff0b44f47387eb388205c33346040516100bf9291906104c6565b60405180910390a1005b6100d161016b565b005b3480156100df57600080fd5b506100e86101ad565b6040516100f5919061054f565b60405180910390f35b34801561010a57600080fd5b506101136101d1565b005b34801561012157600080fd5b5061012a6103c2565b60405161013791906104ab565b60405180910390f35b34801561014c57600080fd5b506101556103e6565b604051610162919061054f565b60405180910390f35b336000806101000a81548173ffffffffffffffffffffffffffffffffffffffff021916908373ffffffffffffffffffffffffffffffffffffffff160217905550565b7f000000000000000000000000000000000000000000000000000000000000000081565b60008054906101000a900473ffffffffffffffffffffffffffffffffffffffff1673ffffffffffffffffffffffffffffffffffffffff163373ffffffffffffffffffffffffffffffffffffffff161461025f576040517f08c379a00000000000000000000000000000000000000000000000000000000081526004016102569061052f565b60405180910390fd5b600360ff166001546102719190610586565b4310156102b3576040517f08c379a00000000000000000000000000000000000000000000000000000000081526004016102aa9061050f565b60405180910390fd5b600047905060008060009054906101000a900473ffffffffffffffffffffffffffffffffffffffff1673ffffffffffffffffffffffffffffffffffffffff16826040516102ff90610496565b60006040518083038185875af1925050503d806000811461033c576040519150601f19603f3d011682016040523d82523d6000602084013e610341565b606091505b5050905080610385576040517f08c379a000000000000000000000000000000000000000000000000000000000815260040161037c906104ef565b60405180910390fd5b7f7151373c0d0295528f4c8ac21f617ca49b0b55d733e561e051572d579b20fae333836040516103b69291906104c6565b60405180910390a15050565b60008054906101000a900473ffffffffffffffffffffffffffffffffffffffff1681565b60015481565b6103f5816105dc565b82525050565b6000610408602083610575565b915061041382610647565b602082019050919050565b600061042b601583610575565b915061043682610670565b602082019050919050565b600061044e60008361056a565b915061045982610699565b600082019050919050565b6000610471602583610575565b915061047c8261069c565b604082019050919050565b6104908161060e565b82525050565b60006104a182610441565b9150819050919050565b60006020820190506104c060008301846103ec565b92915050565b60006040820190506104db60008301856103ec565b6104e86020830184610487565b9392505050565b60006020820190508181036000830152610508816103fb565b9050919050565b600060208201905081810360008301526105288161041e565b9050919050565b6000602082019050818103600083015261054881610464565b9050919050565b60006020820190506105646000830184610487565b92915050565b600081905092915050565b600082825260208201905092915050565b60006105918261060e565b915061059c8361060e565b9250827fffffffffffffffffffffffffffffffffffffffffffffffffffffffffffffffff038211156105d1576105d0610618565b5b828201905092915050565b60006105e7826105ee565b9050919050565b600073ffffffffffffffffffffffffffffffffffffffff82169050919050565b6000819050919050565b7f4e487b7100000000000000000000000000000000000000000000000000000000600052601160045260246000fd5b7f417474656d707420746f2073656e64207472656173757265206661696c65642e600082015250565b7f50617469656e63652069732061207669727475652e0000000000000000000000600082015250565b50565b7f43616c6c657220646964206e6f742070726573732074686520627574746f6e2060008201527f6c6173742e00000000000000000000000000000000000000000000000000000060208201525056fea264697066735822122082026c266d7cf27bb46992c33f23766e3ea9903df5310804a58fbc2427cc47f664736f6c63430008040033",
  "immutableReferences": {
    "40": [
      {
        "length": 32,
        "start": 431
      }
    ]
  },
  "source": "// SPDX-License-Identifier: MIT\n\npragma solidity =0.8.4;\n\n/** \n * @title The Button\n * @author Austin Born <austinborn212@gmail.com>\n * @notice Implements functionality akin to r/thebutton, where users \"press\" the button by submitting funds and if no one presses it within 3 blocks,\n *  the last presser can claim the treasure of all submitted funds.\n */\ncontract TheButton {\n\n  uint8 private constant TREASURE_WAIT = 3;\n\n  uint public immutable press_fee;\n  address public last_presser;\n  uint public last_press_block;\n\n  event ButtonPressed(address, uint);\n  event Fallback(address, uint);\n  event Receive(address, uint);\n  event TreasureClaimed(address, uint);\n\n  /**\n   * @notice - Constructof which accepts a _press_fee argument\n   * @param _press_fee - Fee to press button (nominated in wei)\n   */\n  constructor(uint _press_fee) {\n    press_fee = _press_fee;\n  }\n\n  function press_button() external payable {\n    // require(msg.value == press_fee, \"Caller must pay fee to press the button.\");\n    // require(msg.sender != last_presser, \"Why would you press the button again??\");\n\n    last_presser = msg.sender;\n    // last_press_block = block.number;\n\n    // emit ButtonPressed(last_presser, last_press_block);\n  }\n\n  function claim_treasure() external {\n    require(msg.sender == last_presser, \"Caller did not press the button last.\");\n    require(block.number >= last_press_block + TREASURE_WAIT, \"Patience is a virtue.\");\n\n    uint treasure = address(this).balance;\n    (bool success,) = last_presser.call{value: treasure}(\"\");\n    require(success, \"Attempt to send treasure failed.\");\n\n    emit TreasureClaimed(msg.sender, treasure);\n  }\n  \n  // Receive\n  receive() external payable {\n    emit Receive(msg.sender, msg.value);\n  }\n\n  // Fallback\n  fallback() external payable {\n    emit Fallback(msg.sender, msg.value);\n  }\n}\n",
  "sourcePath": "/Users/austin/Projects/button_smart_contract/the-button/contracts/TheButton.sol",
  "compiler": {
    "name": "solc",
    "version": "0.8.4+commit.c7e474f2.Emscripten.clang"
  },
  "schemaVersion": "3.4.1",
  "updatedAt": "2021-07-01T10:51:45.797Z",
  "devdoc": {
    "author": "Austin Born <austinborn212@gmail.com>",
    "kind": "dev",
    "methods": {
      "constructor": {
        "params": {
          "_press_fee": "- Fee to press button (nominated in wei)"
        }
      }
    },
    "title": "The Button",
    "version": 1
  },
  "userdoc": {
    "kind": "user",
    "methods": {
      "constructor": {
        "notice": "- Constructof which accepts a _press_fee argument"
      }
    },
    "notice": "Implements functionality akin to r/thebutton, where users \"press\" the button by submitting funds and if no one presses it within 3 blocks,  the last presser can claim the treasure of all submitted funds.",
    "version": 1
  }
}